{
    "contractName": "ApostaCaraCoroa",
    "abi": [
        {
            "inputs": [
                {
                    "internalType": "uint256",
                    "name": "_valorAposta",
                    "type": "uint256"
                }
            ],
            "stateMutability": "nonpayable",
            "type": "constructor"
        },
        {
            "inputs": [
                {
                    "internalType": "uint256",
                    "name": "",
                    "type": "uint256"
                }
            ],
            "name": "apostadoresCara",
            "outputs": [
                {
                    "internalType": "address",
                    "name": "",
                    "type": "address"
                }
            ],
            "stateMutability": "view",
            "type": "function"
        },
        {
            "inputs": [
                {
                    "internalType": "uint256",
                    "name": "",
                    "type": "uint256"
                }
            ],
            "name": "apostadoresCoroa",
            "outputs": [
                {
                    "internalType": "address",
                    "name": "",
                    "type": "address"
                }
            ],
            "stateMutability": "view",
            "type": "function"
        },
        {
            "inputs": [
                {
                    "internalType": "string",
                    "name": "escolha",
                    "type": "string"
                }
            ],
            "name": "apostar",
            "outputs": [],
            "stateMutability": "payable",
            "type": "function"
        },
        {
            "inputs": [
                {
                    "internalType": "string",
                    "name": "_resultado",
                    "type": "string"
                }
            ],
            "name": "definirResultado",
            "outputs": [],
            "stateMutability": "nonpayable",
            "type": "function"
        },
        {
            "inputs": [],
            "name": "dono",
            "outputs": [
                {
                    "internalType": "address",
                    "name": "",
                    "type": "address"
                }
            ],
            "stateMutability": "view",
            "type": "function"
        },
        {
            "inputs": [],
            "name": "resultado",
            "outputs": [
                {
                    "internalType": "string",
                    "name": "",
                    "type": "string"
                }
            ],
            "stateMutability": "view",
            "type": "function"
        },
        {
            "inputs": [],
            "name": "resultadoDefinido",
            "outputs": [
                {
                    "internalType": "bool",
                    "name": "",
                    "type": "bool"
                }
            ],
            "stateMutability": "view",
            "type": "function"
        },
        {
            "inputs": [],
            "name": "saldoContrato",
            "outputs": [
                {
                    "internalType": "uint256",
                    "name": "",
                    "type": "uint256"
                }
            ],
            "stateMutability": "view",
            "type": "function"
        },
        {
            "inputs": [],
            "name": "valorAposta",
            "outputs": [
                {
                    "internalType": "uint256",
                    "name": "",
                    "type": "uint256"
                }
            ],
            "stateMutability": "view",
            "type": "function"
        }
    ],
    "bytecode": "608034605f57601f610b6a38819003918201601f19168301916001600160401b03831184841017606357808492602094604052833981010312605f57515f80546001600160a01b03191633179055600155604051610af290816100788239f35b5f80fd5b634e487b7160e01b5f52604160045260245ffdfe60806040526004361015610011575f80fd5b5f3560e01c80633271ebfc146109315780635206f1001461085357806359f78f16146108385780635d27dcc8146107c057806370514bea146107995780637b39eabb14610579578063a92701dc146100bf578063af45675d1461009d5763be901ddb1461007c575f80fd5b34610099575f366003190112610099576020600154604051908152f35b5f80fd5b34610099575f36600319011261009957602060ff600454166040519015158152f35b34610099576100cd36610a04565b5f546001600160a01b03163303610525576040515f516020610a9d5f395f51905f526020820183519261011a602082818801968088875e81015f838201520301601f1981018352826109e2565b519020149081156104cf575b50156104955760ff6004541661045057805167ffffffffffffffff811161043c576101526005546109aa565b601f81116103d4575b50602091601f8211600114610369579181925f9261035e575b50508160011b915f199060031b1c1916176005555b600160ff196004541617600455604051602081015f916005546101ab816109aa565b906001811690811561034457506001146102ff575b506101e2815f516020610a9d5f395f51905f529403601f1981018352826109e2565b519020036102aa57604051600254808252816020810160025f5260205f20925f5b818110610288575050610218925003826109e2565b80514781156102745704801591905f5b8251811015610272575f8080808560018060a01b0360208760051b8a01015116898390610269575bf11561025e57600101610228565b6040513d5f823e3d90fd5b506108fc610250565b005b634e487b7160e01b5f52601260045260245ffd5b84546001600160a01b0316835260019485019486945060209093019201610203565b604051600354808252816020810160035f5260205f20925f5b8181106102dd5750506102d8925003826109e2565b610218565b84546001600160a01b03168352600194850194869450602090930192016102c3565b925060055f525f516020610a7d5f395f51905f525f905b84821061032e575050918201602001916101e26101c0565b6001816020925483858701015201910190610316565b60ff191684525080151502810160200192506101e26101c0565b015190508280610174565b601f1982169260055f525f516020610a7d5f395f51905f52915f5b8581106103bc575083600195106103a4575b505050811b01600555610189565b01515f1960f88460031b161c19169055828080610396565b91926020600181928685015181550194019201610384565b60055f52601f820160051c5f516020610a7d5f395f51905f52019060208310610427575b601f0160051c5f516020610a7d5f395f51905f5201905b81811061041c575061015b565b5f815560010161040f565b5f516020610a7d5f395f51905f5291506103f8565b634e487b7160e01b5f52604160045260245ffd5b60405162461bcd60e51b815260206004820152601b60248201527f4f20726573756c7461646f206a6120666f6920646566696e69646f00000000006044820152606490fd5b60405162461bcd60e51b8152602060048201526012602482015271526573756c7461646f20696e76616c69646f60701b6044820152606490fd5b7f1e7efd7bf3e88d27c8c1046f0b6fcdb7fac9ba0d4da268d347420f396a69b4e5915060405161051b6020828181019487518091875e81015f838201520301601f1981018352826109e2565b5190201482610126565b60405162461bcd60e51b815260206004820152602660248201527f4170656e6173206f20646f6e6f20706f646520646566696e6972206f20726573604482015265756c7461646f60d01b6064820152608490fd5b61058236610a04565b60015434036107545760ff6004541661070f57604051905f516020610a9d5f395f51905f52602083018251936105d2602082818701978089875e81015f838201520301601f1981018352826109e2565b5190201480156106ba575b15610682575f516020610a9d5f395f51905f529161061a6020604051809382820195518091875e81015f838201520301601f1981018352826109e2565b5190200361066157600254600160401b81101561043c5780600161064392016002556002610995565b81546001600160a01b0360039290921b91821b19163390911b179055005b600354600160401b81101561043c5780600161064392016003556003610995565b60405162461bcd60e51b815260206004820152601060248201526f4573636f6c686120696e76616c69646160801b6044820152606490fd5b507f1e7efd7bf3e88d27c8c1046f0b6fcdb7fac9ba0d4da268d347420f396a69b4e5604051602081019061070660208286518089875e81015f838201520301601f1981018352826109e2565b519020146105dd565b60405162461bcd60e51b815260206004820152601a60248201527f4f206576656e746f206a6120666f692066696e616c697a61646f0000000000006044820152606490fd5b60405162461bcd60e51b815260206004820152601960248201527f56616c6f722064612061706f73746120696e636f727265746f000000000000006044820152606490fd5b34610099575f366003190112610099575f546040516001600160a01b039091168152602090f35b3461009957602036600319011261009957600435600354811015610099576003548110156108245760035f527fc2575a0e9e593c00f959f8c92f12db2869c3395a3b0502d05e2516446f71f85b01546040516001600160a01b039091168152602090f35b634e487b7160e01b5f52603260045260245ffd5b34610099575f36600319011261009957602047604051908152f35b34610099575f36600319011261009957604051600554905f610874836109aa565b80835260208301936001811690811561091657506001146108cb575b50906108a08160409303826109e2565b8151928391602083525180918160208501528484015e5f828201840152601f01601f19168101030190f35b91905060055f525f516020610a7d5f395f51905f52915f905b8082106108fc575090915081016020016108a0610890565b9192600181602092548385880101520191019092916108e4565b60ff1916855250151560051b820160200190506108a0610890565b3461009957602036600319011261009957600435600254811015610099576002548110156108245760025f527f405787fa12a823e0f2b7631cc41b3ba8828b3321ca811111fa75cd3aa3bb5ace01546040516001600160a01b039091168152602090f35b8054821015610824575f5260205f2001905f90565b90600182811c921680156109d8575b60208310146109c457565b634e487b7160e01b5f52602260045260245ffd5b91607f16916109b9565b90601f8019910116810190811067ffffffffffffffff82111761043c57604052565b60206003198201126100995760043567ffffffffffffffff811161009957816023820112156100995780600401359067ffffffffffffffff821161043c5760405192610a5a601f8401601f1916602001856109e2565b8284526024838301011161009957815f9260246020930183860137830101529056fe036b6384b5eca791c62761152d0c79bb0604c104a5fb6f4eb0703f3154bb3db02136bc580ff973f4e6dde4271a48ff6b25c42d61f3bf0ace4bd0bc0c49acfb26a264697066735822122069d4ff37ba164c650ebd9173da778d073b793e4c585916232a0892e3198acf8864736f6c634300081c0033",
    "sourcePath": "c:/Users/joaob/PBL_Redes_Blockchain/PBL-Redes---Problema-3-Blockchain/CaraCoroa.sol",
    "compiler": {
        "name": "solc",
        "version": "0.8.28+commit.7893614a"
    },
    "functionHashes": {
        "apostadoresCara(uint256)": "3271ebfc",
        "apostadoresCoroa(uint256)": "5d27dcc8",
        "apostar(string)": "7b39eabb",
        "definirResultado(string)": "a92701dc",
        "dono()": "70514bea",
        "resultado()": "5206f100",
        "resultadoDefinido()": "af45675d",
        "saldoContrato()": "59f78f16",
        "valorAposta()": "be901ddb"
    },
    "gasEstimates": {
        "creation": {
            "codeDepositCost": "560400",
            "executionCost": "infinite",
            "totalCost": "infinite"
        },
        "external": {
            "apostadoresCara(uint256)": "6540",
            "apostadoresCoroa(uint256)": "6606",
            "apostar(string)": "infinite",
            "definirResultado(string)": "infinite",
            "dono()": "2359",
            "resultado()": "infinite",
            "resultadoDefinido()": "2414",
            "saldoContrato()": "194",
            "valorAposta()": "2421"
        },
        "internal": {
            "distribuirPremios()": "infinite"
        }
    }
}